:020000041000EA
:1000000000B5324B212058609868022188439860DF
:10001000D860186158612E4B002199600221596106
:100020000121F02299502B49196001219960352056
:1000300000F044F80222904214D00621196600F024
:1000400034F8196E01211966002018661A6600F04E
:100050002CF8196E196E196E052000F02FF8012189
:100060000842F9D1002199601B49196000215960AB
:100070001A491B48016001219960EB211966A021F2
:10008000196600F012F800219960164914480160C1
:100090000121996001BC002800D000471248134993
:1000A000086003C880F30888084703B5996A0420EC
:1000B0000142FBD001200142F8D103BD02B5186610
:1000C0001866FFF7F2FF186E186E02BD00000240BE
:1000D000000000180000070000035F00212200005C
:1000E000F4000018222000A00001001008ED00E03C
:1000F00000000000000000000000000074B24E7A12
:1001000000200420F7010010C3010010C5010010F9
:10011000C1010010C1010010C1010010C101001097
:10012000C1010010C1010010C1010010C701001081
:10013000C1010010C1010010C9010010CB01001065
:10014000CD010010CD010010CD010010CD01001037
:10015000CD010010CD010010CD010010CD01001027
:10016000CD010010CD010010CD010010CD01001017
:10017000CD010010CD010010CD010010CD01001007
:10018000CD010010CD010010CD010010CD010010F7
:10019000CD010010CD010010CD010010CD010010E7
:1001A000CD010010CD010010CD010010CD010010D7
:1001B000CD010010CD010010CD010010CD010010C7
:1001C00000BE00BE00BE00BE00BE00BEEFF3058054
:1001D000103800BEF2EB887180740010A07400101B
:1001E0003802001090A31AE71E481F49086006C88D
:1001F00081F3088810471D480068002801D019487D
:10020000F3E70DA40ECC002902D000F012F8F9E7B4
:100210001749184A002000E001C19142FCD116495B
:100220008847164988471649884700BEFDE701C937
:1002300001C29A42FBD37047A0740010C000002096
:10024000C0150020A0890010000004200000042038
:10025000A0890010001004200010042000000000FD
:10026000704700000000000008ED00E0000000D032
:10027000C015002084280020BD1E0010750300104A
:10028000B51E0010F8B5C04606480749091A8B107C
:10029000C90FC91810B5491003D0044B002B00D06A
:1002A000984710BDC0150020C015002000000000B8
:1002B000054B10B5002B03D00449054800E000BFF2
:1002C000FFF7E2FF10BDC04600000000202700201D
:1002D000786F001001207047012070477047C046BA
:1002E0007047C04670B501F0F5FE1A4800F07EFE7A
:1002F000194801F03DFF194D1949280004F052FC3E
:100300000321042000F05AF80321052000F056F8DC
:1003100000220121042000F06BF8002201210520B9
:1003200000F066F80F4C2A004221200006F07EF80B
:1003300020006D3800220C49FF3805F049FF041EEB
:1003400004D00A4801F014FF200070BD084801F0F5
:100350000FFFF9E788130000786F00105810002095
:10036000A0860100AC1800204C040000A86F00100B
:100370008C6F001010B5FFF7B5FF002800D0FEE726
:10038000034801F0F5FE034800F030FEF7E7C046F1
:10039000B86F001060EA000010B5064C200004F0B1
:1003A00017FE054BFA222360922392009B00E25035
:1003B00010BDC0464017002060710010094A83003C
:1003C0009A1810B514684022544080322240064CDE
:1003D000C000A44663441A60044B9C4660444160DC
:1003E00010BDC04604C0014004D00140004001409F
:1003F000074B8000C3181B68C90092000A435A408B
:100400000C231340034A9446604403607047C0467F
:1004100004C0014004D001408023DB051868000FB0
:100420007047C0460FB400B5084883B001F0A0FE85
:10043000049B002B07D005A91800019101F006FDCF
:10044000034801F095FE012001F018FDC86F00106F
:10045000D86F001070B5EFF3108C72B60D4D2B688D
:10046000002BFCD0BFF35F8F0724CB08C618C05CFD
:1004700001230C40A3401C000440034207D1184351
:100480003070BFF35F8F2C608CF3108870BD10004C
:10049000FFF7C8FF2C0100D0F8B54746CE46884686
:1004A00080B5EFF3108C72B61C4D2C68002CFCD07C
:1004B000BFF35F8F9A4222D807210126894602E0C6
:1004C0000132934218D34D4637001540AF40D4084F
:1004D0000119045D2742F3D110003C430C70BFF3B7
:1004E0005F8F00220D4B1A608CF3108800280EDB02
:1004F000C0BCB946B046F8BD01204042EFE7BFF3AB
:100500005F8F00232B608CF310880120404243460C
:10051000002BEDD00898FFF785FFC0462C0100D0D6
:10052000044A1078431CDBB2172B00D91023137038
:100530007047C046980F002010B5064B064C82B09D
:100540000100009318221F232000FFF7A5FF02B02F
:1005500010BDC046DC6F0010A82200200021044B13
:10056000044ABFF35F8F02C39342FAD17047C0467B
:10057000000100D0800100D0054B064A1360064AF6
:10058000136053609360D36013615361936170474C
:100590008080808000E400E004E400E01F23184035
:1005A0001E3B8340002905D0C021044A4900535016
:1005B00013607047802201498B50FAE700E100E0A8
:1005C00001228240034B1B6813405A1E9341D8B24C
:1005D0007047C04600E100E001238340014A1360F8
:1005E0007047C04600E200E0064B10309B68800078
:1005F000C358054A00209B1A2F229A424041C0B29C
:100600007047C04600ED00E09C0F002070B50D0063
:10061000EFF3108672B60F4A1368002BFCD0BFF3BD
:100620005F8F0D4B10309B6884001B590B4A93421F
:1006300003D09D4201D000F0FFFF074B9B681D5186
:10064000BFF35F8FBFF35F8F0022024B1A6086F308
:10065000108870BD240100D000ED00E0CD01001035
:10066000F0B557464E46DE464546E0B585B0060035
:1006700000911700EFF3108B72B66A4A1368002BD3
:10068000FCD0BFF35F8F0025674B5D579A46002D66
:1006900000DAA9E06B00654C01935B199B0098465A
:1006A000A146C1444B4652469B7910361370604BAD
:1006B000B6009B6899590B1B2F2B33D95D4B994280
:1006C00000D0ACE0019B42469C465B4B6544AD00CC
:1006D00063535A4B0232A218043B9B1A1B05584A1B
:1006E0005B0D651913436B80564B0121AB80FF23D3
:1006F000AB71009BEF71AB604B460B4319004C4B49
:100700009B689951BFF35F8FBFF35F8F0022454B0A
:100710001A608BF3108805B0F0BCBB46B246A94600
:10072000A046F0BD01200A008243D3798C46BB422B
:1007300031D84546130044491B1B5B415943090D01
:100740003D4B63533D4B02356519043B5B1B1B0559
:100750003B4D5B0D2B43AA464D466B800425AC46B2
:100760005546E044131F44441B1B1B055B0D1D43F2
:100770004B46997100999D8099604946DF71334BD2
:1007800001431360BBE75800C01880002018C179EE
:10079000B9422FD902000623D356002BF3DA029375
:1007A0002B4B61460393131D9A4604235B429C46E0
:1007B000E14450464B461B1A1B055B0D9C46204BE3
:1007C000957198466346404603439380019B5A19AE
:1007D0009200039BA418A380029B1C4AA371009B58
:1007E0002260E771A3608AE700F026FF00255346E8
:1007F0005D574FE7908802934005131D9A460315F5
:1008000061469C464046D444634604302018181A7A
:10081000E0230005400D1B0218430390C5E700F0DC
:100820000BFF4FE7240100D07F2800209C0F002001
:1008300000ED00E0CD01001000A1FFFFCC0F002073
:1008400000E0FFFF01BDFFFFAAAA000001488047AA
:1008500001BD000070B501240443EFF30581EFF3FF
:10086000108C72B6214A1368002BFCD0BFF35F8F47
:100870001F4B05001F4AED1A6D416A43120D1E4DB4
:100880008900AE6852B27658A6421CD0062159564D
:1008900091421CD012215956914222D01E21595604
:1008A000914220D02A2159560324914210D0134B53
:1008B00019781A708171BFF35F8F00220B4B1A6099
:1008C0008CF3108870BDAB680D4C5C50EFE70024D2
:1008D0006100091989005B18FF2199710949998004
:1008E000E5E70124F4E70224F2E7C046240100D042
:1008F0009C0F0020AAAA000000ED00E07F28002045
:10090000CD01001001BDFFFF10B5084B084C82B0AF
:1009100001000093002205232000FFF7BDFD002801
:1009200001DB1F23181A02B010BDC046F86F00107B
:1009300083280020024B9C46614489000160704777
:100940004000003470B5114C114DAC420FD2FF265F
:100950002368002B0CD0FFF7E3FD01002000FFF718
:10096000E9FFA680BFF35F8F0834AC42F0D370BDBF
:10097000FFF7D6FD01002000FFF7DCFF2671BFF373
:100980005F8F0834AC42E3D3F1E7C046B8150020CE
:10099000C015002010B50400FFF7C2FD01002000C3
:1009A000FFF7C8FFFF232371BFF35F8F10BDC04661
:1009B00010B504000120FFF7BFFD034BC3189B00D7
:1009C0002360BFF35F8F10BD40000034034B9C4693
:1009D000614489000160BFF35F8F704740000034BD
:1009E0000A4B1968EFF3108072B60A68002AFCD02F
:1009F000BFF35F8F1B68BFF35F8F00221A6080F325
:100A0000108840BF002000217047C0465C280020AD
:100A1000F0B5DE4657464E464546E0B587B0EFF3A3
:100A20000583032201251A40954091008846A94676
:100A3000B34B03925C58B34B1D60B34B04934B46CE
:100A4000B24843630823E55E002D37DAA3881BB262
:100A5000002B00DBADE0A379002B00D0EEE00823F3
:100A6000E05E002820DB430062691B18DB00D3181E
:100A70009E68DD68731C00D111E1A4480100414467
:100A8000826A0B69B71A9B1A9F4215D30123026A27
:100A9000039883401A420FD09C4800F0B5FB8D426A
:100AA00002DCCCD18642CAD940BF07B0F0BCBB46FD
:100AB000B246A946A046F0BD0E61EDE762696B0043
:100AC00092465B19DB009A4453469E68DF6800F04B
:100AD0009BFB8F42BADC00D103E1002F00DAE8E093
:100AE0005246534652691B699346049A934200D179
:100AF000D9E052460821605E5288000459461043EE
:100B00009847009001910099019A0B00100013433F
:100B100000D1CEE013000A00B61A9F41002806DB80
:100B20007A4800F071FB009E019F36184F415346F2
:100B30009E60DF6000229A5E002A00DA86E753009A
:100B400099186069C900411802938B68C9689B466F
:100B5000B94200DD7AE702D1B34200D976E7082333
:100B60009C46A444059565462281A446029B2C0020
:100B700006E053009918C90041188D68C968AB4652
:100B80009B18DB00C318B94206DC00D1B3E01C009F
:100B90000023E25E002AECDA230064469C465346BA
:100BA0001A806346059D1D80A3881BB2002B00DAC6
:100BB00051E72269EFF3108172B61368002BFCD065
:100BC000BFF35F8F0123A7885B42A3803FB22369F5
:100BD000BFF35F8F00221A6081F31088002F00DAC4
:100BE00039E72300083322009A4666697B00DB1947
:100BF000DB00F318996850468C460824115FDD68C5
:100C0000002910DB029306E0AB4244D00023E15EF2
:100C10002000002906DB4C006418E4003419E36866
:100C2000AB42F1DD029B078000201F5E1980002F80
:100C3000DCDA1400A379002B00D110E70023A371A4
:100C400026000823E15E08364B1C00D12CE7080083
:100C5000A246656902E03E004B1C1AD04B005B18AF
:100C6000DB00EF180A008C46E95E7B881BB2002B84
:100C7000F1DA01235B42DC17BB60FC60824205D0E5
:100C8000534631801B893B8053461A8160464B1C7A
:100C9000E4D15446E5E6A3686345B7D9C2E76B1CC7
:100CA00000D0EAE6F8E65B4658461B6998470028FC
:100CB0001BD153461B8822692381EFF3108372B640
:100CC00011680029FCD0BFF35F8F514662880A800B
:100CD00022696580BFF35F8F0021116083F3108864
:100CE000B4E6864200D8F8E6B0E65B461A685B6870
:100CF0000092019307E7B34500D848E74CE7C046A8
:100D0000402700203C700540110A001000400540BB
:100D100070B52E4C2569002D04D00A212C48FFF710
:100D200009FE70BD2B4E0321300000F063FAE6602F
:100D3000FFF7F6FB284B03229C46D02322701B06AC
:100D40001B6801216370254B6044A3600F23800062
:100D500020610220638063694942A18019800231C9
:100D6000198647311D83585218315A5275325C39F1
:100D70009952183201319952183201319952183270
:100D800001319952083518329D5202311832995268
:100D90001832013199521832013199521832013109
:100DA00099521832013199521832013199520C4B33
:100DB0000C49DC6001303562FFF728FC012103207B
:100DC000FFF7ECFB084B1D60A7E7C046E40F0020CF
:100DD0005C2800200040054040000034FFFF100068
:100DE00040270020110A0010386005400048704775
:100DF000E40F0020F8B51F0008AB1B7804001600B4
:100E0000002B08D100F008FA32003B00121A8B4187
:100E1000002B00DA52E02269EFF3108072B61368FB
:100E2000002BFCD0BFF35F8F0223E15E63694A00B1
:100E30005218D2009B182269002936DB1D88658074
:100E4000BFF35F8F0025156080F31088069A9E60BF
:100E5000DF601A61079A5A615A8801325204520CB3
:100E6000101C002A1FD082B2588008041043266943
:100E7000EFF3108772B63268002AFCD0BFF35F8FA1
:100E8000A2881A80A1802369BFF35F8F00221A60B5
:100E900087F310880A4923788C4601329A40E36828
:100EA00063441A60F8BD0120DDE7BFF35F8F0023C4
:100EB000136080F3108801204042F3E70020F1E73F
:100EC0003C20000070B501000469EFF3108C72B68D
:100ED00020680028FCD0BFF35F8F02200D5E4C69B4
:100EE00068004019C00024180869002D36DB2688E8
:100EF0004E80BFF35F8F002606608CF31088E3609E
:100F000063880498013320615B0405985B0CA26040
:100F100060611A1C002B1FD093B228046280184312
:100F20000A69EFF3108C72B61368002BFCD0BFF384
:100F30005F8F8B8823808D800B69BFF35F8F0022CA
:100F40001A608CF310880B7801329A40CB680849FC
:100F50008C4663441A6070BD0122DDE7BFF35F8FEA
:100F6000002303608CF3108801204042F3E7C04661
:100F70003C20000010B543890A1493421ADD530047
:100F80009B184269DB00D3180469EFF3108C72B62A
:100F90002268002AFCD0BFF35F8F5A88090494B2FC
:100FA000090C8A4208D00369BFF35F8F00221A60E0
:100FB0008CF31088002010BD8022120214435C8044
:100FC000012302698371BFF35F8F002111608CF3ED
:100FD0001088044902788C469340C268012062441C
:100FE0001360E8E73C20000040787047F0B5C64643
:100FF00000B582B0040000F00FF9FA2206000F00DD
:10100000200000230021920000F098FE8019794111
:1010100004000D1E02DA01242E4D6442062676429B
:10102000F71736196F41AF4214D811D000F0F4F819
:1010300032003B00121A8B41002B15DC002B46D0EE
:101040002000290000F0F2F802B080BCB846F0BDE4
:10105000A642EBD90026002700F0DEF832003B0064
:10106000121A8B41002BE9DD00F0D6F832003B006C
:10107000121A8B41002B0ADB00230193164B32001E
:10108000009316483B00FFF71DFF0130D8D0002326
:101090003900B0469C46124A1248536A994204D815
:1010A000966A4645CCD29942CAD10668EFF31087BA
:1010B00072B63368002BFCD0BFF35F8F0368BFF3B9
:1010C0005F8F66461E6087F3108820BFE5E7002A21
:1010D000B6D0C9E7FFFFFF7FE1090010E40F002051
:1010E000004005405C280020F0B557464E46DE46DD
:1010F0004546E0B506000F0085B0EFF3058399463D
:101100008B46002B12D0384900204B6ABB4206D3D5
:101110008A6ADB1B591E8B41B2424041184305B01D
:10112000F0BCBB46B246A946A046F0BD2F4B9A463E
:10113000DB68984653461B784046039300F064F8FA
:101140004246039B040004339B009B580D001B1A6E
:1011500039003000001BA941894510DC0DD020BFAB
:10116000214A0020536A5B45D9D3926ADB1B591E82
:101170008B41B24240411843D1E78342EFD900F09E
:101180004BF832003B00121A8B41002B1ADB002374
:101190000193174B3200009350463B00FFF792FE3D
:1011A000011E0FDD104B5A6A5A451BD39B6AB3428E
:1011B00016D35046FFF7DEFE0B4A0020536A5B450C
:1011C000ADD3D2E7084A0020536A5B45A7D300207D
:1011D000926ADB1BB24240415A1E934118439EE77C
:1011E0005A45E6D120BFE4E700400540E40F002067
:1011F000E109001010B5024A0248FFF72BF910BDB3
:1012000014700010AC2200200300416A0A00986AA2
:10121000596A8A42FAD17047034B596A0A00986AA0
:10122000596A9142FAD1704700400540064A536A14
:101230009942FCD807D1044B02E05A6A914202D18C
:101240009A6A9042F9D8704700400540F8B5DE46EA
:101250004E4657464546E0B58B4605000A991800AC
:10126000160000F0C7FA0A9B6C001F02324B64198B
:101270009C46A4006444636881469F4200D967602D
:101280002B1FDBB29846012B30D9C02380229B0153
:10129000E31812011A60294BAD0059599A460029EA
:1012A0001BD17301E026226853401E408023424632
:1012B0005B01E3181E60012A30D9802380229B0144
:1012C000E31812011A6053464A4667605A51F0BC4F
:1012D000BB46B246A946A046F8BD586900F08AFA56
:1012E000013043001B18033BFDD2DAE75B46012BBC
:1012F000CBD1C02303229B01E3181A60023AA368F2
:101300001A42FCD07301E0262268AD0053401E4013
:1013100080230A4A5B019246E3181E605A46216800
:10132000514003220A401A6001225B469A40A3689A
:101330001A42FCD0C1E7C04600800040B022002025
:10134000F0B546464F46D646C0B51F00344B440064
:101350009C462418A4006444636888461600FF2B4A
:1013600002D880235B006360031FDBB29A46012B27
:1013700030D9C02380229B01E31812011A60294B47
:1013800085005959994600291BD17301E02622682E
:1013900053401E40802352465B01E3181E60012A21
:1013A00030D9802380229B01E31812011A60802328
:1013B0005B0063604B465F51E0BCBA46B146A8464D
:1013C000F0BD586900F016FA013043001B18033BCA
:1013D000FDD2DAE74346012BCBD1C02303229B0188
:1013E000E3181A60023AA3681A42FCD07301E0269F
:1013F0002268850053401E4080230A4A5B019146C3
:10140000E3181E6042462168514003220A401A60D8
:10141000012342469340A2681342FCD0C1E7C04674
:1014200000800040B0220020014B8000C05870476F
:10143000B0220020F8B5040021481E0017000D005E
:1014400000F0D8F90100380000F0D4F9069B36040A
:101450001B031E432368002B20DB1A4B1A49E31899
:101460005A1E93418022920194465B421B0B174AFD
:101470001B0363441360164A13601F000A689743F6
:10148000FBD1144B2560E2182123A0601360236870
:10149000002BFCDA0823E6601360F8BD3F232268C6
:1014A0001340AB42D9D1A3681B051B0D8342D4D195
:1014B000EE22E368D2021340B342CED1EDE7C0463C
:1014C000001BB7000040FDBF08C0004000E0004026
:1014D00000F000400430000010B580241C4BE405EF
:1014E0001C6000281AD001231A4C18431A4BDC61E7
:1014F0001A4C44401C62596298628021144BC90501
:101500001960174817490860E021C9041960002ACA
:1015100007D18022144B12061A6010BD0E4BD86101
:10152000EBE753019B1A9B009A18802312015B047E
:101530009A4209D213000D490B60074B5A60802272
:10154000094BD2051A60E8E7094B1A00F3E7C046D9
:1015500000B00540D3C007B0008005402D3FF84FD4
:10156000FCFF01000820014000A0054018270020D2
:10157000FFFFFF008023024A9B000B43D3627047AA
:1015800000800540002310B50100988A1B8B984706
:1015900010BDC046162310B50100188802331B8801
:1015A000984710BDF8B54746CE4680B50F1E18D0F7
:1015B00014239946043304000025012698464B461F
:1015C0001888434621681B88984701C4431E9841E8
:1015D00001350640AF42F2D13000C0BCB946B0463A
:1015E000F8BD0126F8E7C046002370B504000D00E1
:1015F000988A05491B8B984703000020002C01DBCB
:101600000130A0402900984755420000AA23064A0D
:101610001B0113608D235B00D3600449044B1960E8
:101620005368002BFCDA70470040024000B0FA001B
:10163000006002407047C04610B50148FEF7F2FE58
:101640003870001070B5074D074EB54209D200241E
:10165000013E761BB60808CD984723000134B342FB
:10166000F9D170BD306F00106C6F0010054B064A49
:1016700006491A60064A074B1A6010000B68984327
:10168000FBD1704700E00040BFCDFBFE08C000402A
:10169000FE7F3C0000F00040044BDB6C002B03D1CC
:1016A0008022034BD2021A607047C04600001150DE
:1016B0004C201150044A054B1A60054A1368DB019F
:1016C0008033FBD17047C046FFFFFF0100F00040B0
:1016D00008C000404022034B9A675A671A67DA66CF
:1016E0007047C04600F0014010B5FEF737FF10BD4F
:1016F00070B5044D044CA968C022200000F090FB96
:10170000AC6070BD00ED00E000000020002310B5CB
:10171000294C82B0A367FFF779FF0122274B1A609B
:10172000636C012BFCD10322254B1A60224A936B78
:10173000012BFCD1013300930121224A22480433BA
:10174000FFF778FE052301210093204A2048FFF788
:1017500071FE0022022104201E4BFFF7F1FD002242
:10176000012105201C4BFFF7EBFD00220021072083
:101770001A4BFFF7E5FD002200210820174BFFF769
:10178000DFFD8023DB000093002200210920134BA2
:10179000FFF75CFD0022104B00210620FFF7D0FD73
:1017A0000420FFF741FE0E4900F024F8010000205C
:1017B000FFF7E0FE02B010BD008000403CB00040EA
:1017C00030B00040002F685900800240008C8647EE
:1017D00000C00240001BB70040597307006CDC02D8
:1017E00040420F0001480421014B1847001000201F
:1017F000A5150010114A936F9B0813D2106651660D
:10180000002905D0FFE7FFE7FFE7516F106F704732
:1018100004B5002801D00020C04305F049FB002199
:1018200004BDC046F0B5146E556E576F166FFFF7C6
:10183000E5FF1466556657671667F0BD000000D0D7
:1018400094464A4A926F9208624601D228E0C04606
:10185000F0B5464E346E756E776F366F00F020F837
:101860009446424A14665566576716676246F0BD4D
:1018700094463E4A926F9208624601D254E0C046B6
:10188000F0B53A4E346E756E776F366F00F04CF8E7
:101890009446364A14665566576716676246F0BD29
:1018A000002B24DB11D000293EDA00B5C9434042A9
:1018B00000D1013100F038F8C943404200D1013174
:1018C000DB43524200D1013300BD002AEBD1002896
:1018D00001D1002905D00020C90FC90701D1C0439B
:1018E000410800B505F0D4FA0022002300BD00B580
:1018F00000290ADBDB43524200D1013300F014F827
:10190000C943404200D1013100BDC943404200D12A
:101910000131DB43524200D1013300F005F8DB43D3
:10192000524200D1013300BD002923D1002B18D130
:10193000002A0CD0BC460D4F38667A660021002381
:10194000FFE7FFE7FFE77A6F386F674670470028C9
:1019500001D00748010000B505F09AFA00220023E3
:1019600000BD02000B00002000217047000000D0E5
:10197000FFFFFFFF002B00D0BFE0130C28D1002A8F
:10198000E7D080B4114F39667A66FFE7FFE730B4DD
:10199000040C7B6F396F1B0423433B667A66FFE7B9
:1019A000FFE7FFE7C04684B27B6F3D6F1B04234314
:1019B0003B667A66FFE7FFE7C04600232C042D0C48
:1019C0007A6F386F00196941B0BC7047000000D0D1
:1019D000F0B594460025140E01D112020835140FFB
:1019E00001D112010435940F01D192000235D40FB8
:1019F00001D152000135D40B0134254F7C66254CB2
:101A00003C660E0C93B2FFE7FFE7FFE73C6F6643CF
:101A1000360C7703BE467343DF0B5B04C01AB94133
:101A2000130C7343DB18C91ACE086643360CB64450
:101A300093B273431F0F1B01C01AB941130C7343B8
:101A40001F0B1B05C01AB941860D8F023E4366432A
:101A5000360C092D24DB520A7243801A7703460A9A
:101A60006643360C16235B1BDE40DF40BF1964461D
:101A70006643821B7046043506330100D940A840F6
:101A8000C01900D30131A24206D20023F0BD0000EC
:101A9000000000D0FFFFFFFF121B0130F3D3F1E77E
:101AA00009277F1BFE406446A2B27243801A00D20F
:101AB0000139220C7243130C1204821A99410B0053
:101AC0007046043513370100F940A840801900D34F
:101AD0000131002B02D1A2420AD2F0BD013000D365
:101AE0000131121BFAD2013BF8D1A24200D2F0BD63
:101AF000013000D30131121BF7E7F0B51C0C00D008
:101B000080E00CB400251C0A04D11B02160E3343DE
:101B1000120208351C0B04D11B01160F33431201AE
:101B200004359C0B04D19B00960F33439200023581
:101B3000DC0B02D192185B4101351C0097186441FF
:101B40000134464F7C66464C3C660E0CFFE7FFE7CF
:101B5000FFE7C0463C6F6643360C7703BE4697B23C
:101B60007743C01B00D20139C01B00D201399FB29C
:101B70007743C91BC91B170C77437E04FF0B801BDF
:101B8000B941CE086643360C0C2D33DBB644120B3C
:101B90001F053A431B0B97B27743C01B00D2013994
:101BA0009FB27743C91B170C77433E043F0C801B41
:101BB000B941860D8F023E43664329277F1BFE40B5
:101BC0000C3D7746AF40BF1930BCA2B2ABB27243F6
:101BD0007343801A9941220C7243130C1204801A29
:101BE000994102000B000137001BA941F9D2781E70
:101BF0000021F0BD0C277F1BFE4077467F0BAF40D6
:101C0000FF19E0E700245D1C07D0144F7D6639669C
:101C1000FFE7FFE7FFE7FFE73C6F95B29EB2654342
:101C20006643401BB141150C1E0C654366433604E8
:101C30002F0C3E432D04401BB141994204D20200B7
:101C40000B0020000021F0BD01D19042F7D3801A93
:101C5000994101349942F2D3F6E70000000000D028
:101C6000FFFFFFFF10B50148FEF7DCFB44700010DA
:101C7000132370B51D78012D19D014DD1D48FFF711
:101C800089FC06001C48FFF785FC1C4C80223100B3
:101C9000200000F0C5F8022D06D01948FFF772FCAD
:101CA000184B186070BD154C174BA364F5E7174B24
:101CB000124C23606360A360E36023616361A361EE
:101CC000E36123626362A362E36223636363A363EA
:101CD000E36323646364A364E36423656365A365CA
:101CE000E36523666366A366E36623676367A367AA
:101CF000E367D9E7534400005346000098190020D9
:101D00004C33000058270020111D0010651C0010E6
:101D100007B5604601880A0A0230DF2AFAD1C9B243
:101D2000820804D3028840880004104300E0006861
:101D3000014A5050039007BD981900205143434376
:101D4000C9188C46110C83B24B4310B4040C614388
:101D500092B280B2504362431C041B0C001910BCA9
:101D600059411304120CC0185141614470470000DE
:101D700010B50148FEF756FBC46F0010132310B5D1
:101D800010481C78FFF706FC0100012C0AD003DD87
:101D900080220D4800F044F80C48FFF7F3FB0C4B91
:101DA000186010BD084C5422200000F039F82200C1
:101DB000084980322368002B00D12160043494420A
:101DC000F8D1E9E7534600005C2700204C330000BF
:101DD00058270020711D001010B5040004F090FB7E
:101DE000002804D0034B04199C4200D810BD0248BF
:101DF000FEF718FB000004205C70001010B504F022
:101E000089FB10BD01480421014B18471010002028
:101E1000A5150010014B1B6818470000101000208A
:101E2000014B5B68184700001010002010B5FFF749
:101E3000D3FF10BD10B5FFF7E1FF10BD10B50028AE
:101E400000D110BD00F04AF9FBE7C04610B5094AC1
:101E50000300146884B0002C08D0012200910648C9
:101E6000524203A9A047012004B010BD00F080F940
:101E70000020F9E7142700203D1E001000BEFDE7FA
:101E8000094A03001068002805D00849C3188B428E
:101E900007D81360704706480449C31810608B4286
:101EA000F7D901204042F5E710230020000004206C
:101EB0008428002010B5FFF7E1FFC04670B5FFF79A
:101EC000C1FB074D074EB54209D20024013E761BE7
:101ED000B60808CD984723000134B342F9D170BD4C
:101EE0006C6F0010786F0010030010B5080011002F
:101EF0001B68984710BDC046F0B5C64600B5437D87
:101F000007000C001600002B46D0002A17DD0B78C6
:101F10000A2B24D000239846012E13D00125290036
:101F2000635C01350A2B26D0B542F8D1464509DC61
:101F3000A419013C23780D3B5A4253413B7580BCA8
:101F4000B846F0BD4346E018A419F11A013C3B68BD
:101F5000984723780D3B5A4253413B75EFE7037D89
:101F6000002BD7D102210F483B689847012EDFD0C4
:101F700001239846D2E7631E5B5C0D2BD4D08845C5
:101F800004DA4346C91AE0183B689847022105481D
:101F90003B68A8469847C7E70368110020009847A8
:101FA000CDE7C046C4710010F0B54546DE464E464A
:101FB0005746E0B583B091461C0080460D00FFF700
:101FC0002BF90023304A12184B41002B02DA012270
:101FD0002E4B52422E4908008A4604F089FF070022
:101FE0006B1C03D1404604F0BFFD0500002C27D038
:101FF000284E294B1C68002C18D04B46002B21D1B1
:10200000264B994602E02469002C0FD02368002B50
:10201000F9D04B461B68002B01D09C42F3D1200025
:102020002A004146B0472469002CEFD1002F26D169
:10203000280003B0F0BCBB46B246A946A046F0BD9E
:10204000174ED6E7154B99460A239B4602E02469B2
:10205000002CEBD02368002BF9D04B461B68002BDB
:1020600001D0A342F3D12A0041462000B0476B467D
:102070005A462000DA71D91D0122B047E7E75046E1
:1020800004F0FEFED4E7C04640420F00FFFFFF7F92
:10209000B8150020F91E0010002300200C2300209A
:1020A000E91E00100A4A1368002B05D10CE01A0043
:1020B0001B691032002B07D08342F8D1002902D1CE
:1020C00018691060196170470029FCD01060FAE7A8
:1020D0000023002010B500F07FFA10BDF0B5CE4609
:1020E000474680B583B06B460600DD1D2870FFF7BC
:1020F00093F80023194A12184B41002B02DA0122EF
:10210000174B524217490800884604F0F1FE164B5F
:1021100081461C68002C14D0144F02E02469002C66
:102120000FD02368002BF9D03B68002B01D09C42D4
:10213000F4D1200001222900FFF7DEFE2469002CE3
:10214000EFD14B46002B05D1300003B0C0BCB946DF
:10215000B046F0BD404604F093FEF5E740420F0064
:10216000FFFFFF7FB8150020002300200C23002074
:1021700070B5040004F0F8FC012301000500012201
:102180002000FFF711FF084B1C68002C06D0636885
:10219000002B05D098472469002CF8D1280070BD89
:1021A0002469002CF3D1F9E7002300207047C046D2
:1021B0000022014B1A707047802800204B790020C4
:1021C000FF2B0BD18B79002B08D1CB79012B05D1BB
:1021D000082A03D9024B8A7809301A707047C04622
:1021E000802800200120704710B5012913D1124921
:1021F0005379107909781B0203430020994200D0DB
:1022000010BD5378012B08D0022BF9D16422002194
:102210000020FFF761F90120F2E7D37891781B02E3
:102220001943480ADB0501D4012040427F238A0577
:10223000D20F1940FFF7D8F98028002000487047D6
:102240009072001070B5050014000120012909D119
:1022500053780020012B05D1637912791B021343B7
:10226000072B00D070BD21002800024A9F3301F0E7
:1022700055FAF7E7E8710010012303700048704732
:10228000C87100104B780A781B0213438A7810B586
:1022900012041A43CB781B0613439622D2009342B2
:1022A00000D010BD0022012011004042FFF79CF930
:1022B000024B1860024B19607047C046A0220020F4
:1022C000A422002010B5024B1878FEF785F910BD46
:1022D00081280020154B70B51A68002A22D0EFF330
:1022E000108172B610680028FCD0BFF35F8F002009
:1022F0000F4A596010701B68BFF35F8F186081F33D
:102300001088002400250B4E3078FEF759F900287C
:1023100004D1002400252900200070BD3078FEF78C
:102320005BF9F8E7FA240025A400ECE73827002041
:10233000822800208128002070B5040000200E00B3
:1023400001F00AFB002834D0002001F01BFB00281C
:102350002FD0FEF761FF0023174A12184B41002BC4
:1023600016DB164D280004F0C3FD002821D0002004
:1023700001F0F2FA00280FD101200021404200F0C4
:1023800001FD03246442280004F07AFD200070BDA2
:1023900001220B4B5242E4E7002001F0F3FA00283F
:1023A000EAD021003200002001F0F6FA041EEAD142
:1023B000E7E703246442E9E740420F006028002079
:1023C000FFFFFF7F10B5FEF727FF00230D4A12180D
:1023D0004B41002B02DA01220B4B52420B4C2000E6
:1023E00004F086FD00280CD001200021404200F0BE
:1023F000C9FC002001F014FB0028F5D1200004F0F6
:102400003FFD10BD40420F00FFFFFF7F602800200E
:10241000F8B5DE46574680B505000C00FEF7FCFE19
:102420000023364A12184B41002B02DA0122344BAA
:102430005242344908008A4604F05AFD002803D16C
:10244000C0BCBB46B246F8BD002001F085FA0028AA
:102450004AD00026002C43DD2B4B9B4614E0A919E3
:10246000002001F017FB070001200021404200F08E
:1024700089FC002001F0D4FAFEF7CEFE224BF619BB
:1024800018605960B4422BDD002001F023FBA71B2C
:102490000200B84200DD3A00002AE0D1012000210C
:1024A000404200F06FFC002001F0BAFA002001F079
:1024B00053FA002814D0002001F00CFB0028E1D1D1
:1024C000FEF7AAFE5B460F001A685B68002184468F
:1024D0000E4812184B419F4202D8D3D19445D1D90E
:1024E000504604F0CDFCABE700200021064B1860FD
:1024F0005960504604F0C4FCA2E7C04640420F00B9
:10250000FFFFFF7F602800209019002020A1070016
:1025100030B52A4C85B00021200004F0D1FC002801
:102520001CD1274B1A68002A16D0EFF3108172B61F
:1025300010680028FCD0BFF35F8F01242148596048
:1025400002781B68D2B20470BFF35F8F002018605E
:1025500081F31088002A17D005B030BD012000217A
:10256000404200F00FFC002001F00CFA05002000B2
:1025700004F086FC002DEFD0134B1B68002BEBD032
:10258000124A10689847E7E7FEF730FC0400FEF7B0
:1025900043FEFA220023920012184B41002B02DA6C
:1025A00001220B4B52420121029100210191094964
:1025B00020000091FEF71EFCCEE7C04660280020F8
:1025C0003827002082280020A0220020A4220020FA
:1025D000FFFFFF7FD5220010D02310B51B0684B06B
:1025E0001C68FEF703FCFEF7FFFCA04202D00020AF
:1025F00004B010BD294B002100201B7801F05EFDC6
:1026000027480368002B45D00120FEF77DF9FF2302
:10261000244C254920701840FDF7F8FF207801214F
:10262000FDF7BCFF0520FDF7DFFF002824D10822BD
:1026300000211E48FFF7EEFBFEF7D8FB0400FEF773
:10264000EBFDFA220023920012184B41002B02DA14
:102650000122174B5242012102910021019115499B
:1026600020000091FEF7C6FB0028C0DB12480121C4
:10267000FFF718FD0120BBE70120FDF75DFF0B4BC5
:1026800001001800FEF7A2F9002205200B49FDF712
:10269000E7FFEBE7FEF77EF9B6E7C0469C74001053
:1026A00060280020812800201125001038270020F4
:1026B000FFFFFF7FD522001020100020C522001050
:1026C000004870472C73001000487047D872001003
:1026D00010B5040017480378002B20D0002C06D139
:1026E000154B16484380063BFF3B038010BD052C6D
:1026F0001DD8134BA400E05812490123013804E00F
:1027000001330A800231142B0DD0C25C002AF7D1AC
:10271000C022DBB25B00920008481343E5E71121B9
:1027200000F01AF8DAE7CA2304489B00DDE700202E
:10273000DCE7C0466828002009040000D8220020F9
:10274000C0720010DA22002010B5024800F0D8F85C
:1027500010BDC0465027002030B54B1E012900D1C6
:10276000A7E0664A11780D092C0030349F2900D962
:10277000A2E00470012B00D1BEE00F2114782140AB
:102780000C003034092900D998E04470022B00D1A4
:10279000B2E054782509290030319F2C00D990E00F
:1027A0008170032B00D1A7E00F2121400C003034B1
:1027B000092900D987E0C470042B00D19CE09478EB
:1027C0002509290030319F2C00D97FE00171052BAC
:1027D00000D191E00F2121400C003034092900D9AB
:1027E00076E04471062B00D186E0D47825092900D3
:1027F00030319F2C00D96EE08171072B00D17BE036
:102800000F2121400C003034092966D8C471082BEF
:1028100000D171E014792509290030319F2C5FD84F
:102820000172092B68D00F2121400C003034092996
:1028300058D844720A2B5FD05479250929003031C9
:102840009F2C52D881720B2B56D00F2121400C00A7
:10285000303409294BD8C4720C2B4DD094792509FA
:10286000290030319F2C00D9073101730D2B43D043
:102870000F2121400C003034092901D937310C00D7
:1028800044730E2B38D0D1790C09220030329F29A5
:1028900000D9073282730F2B2ED00F220A4011006D
:1028A0003731092A01D830321100C173102B23D0DF
:1028B00010300023037030BD07345AE737310C0065
:1028C00063E707316CE737310C0074E707317DE7C8
:1028D00037310C0085E707318EE737310C0095E77B
:1028E00007319DE737310C00A3E70731AAE73731FD
:1028F0000C00C4720C2BB1D1C018DAE750270020AD
:1029000010B588B004000D2200216846FFF782FA56
:102910000D22002104A8FFF77DFA4B236A46684682
:10292000137004A90D2204F0A3FA15210822200037
:102930006944FFF775FA08B010BDC046F8B500F05D
:1029400047F90C23194DFF22AB6705201849FDF705
:1029500087FE184C402200212000FFF75BFA402739
:10296000002301262121144A66702783A260136088
:1029700063545F31618445396354104A1049636080
:10298000E2602787A1620B606362E26204F088FA6A
:1029900080239B052E64EB6490230A4A0120EA50B1
:1029A0008022094B5202DA64F8BDC0460000115083
:1029B000F90400201423002084001050000110505E
:1029C0008000105010D001000020115010B50121DE
:1029D0000520FDF7E3FD10BD10B5002200210248DF
:1029E00000F016F910BDC04634230020044B1970C6
:1029F000002904D080219023024A8902D1507047D7
:102A00007C280020002011500B785B0602D14B7807
:102A1000052B00D070478A78014B1A60FAE7C04650
:102A200000001150F0B5C646C87800B58007830F86
:102A30001800012B60D08F780A794B797F213940BB
:102A4000FC091B024E001343334D32195201AA18E0
:102A5000977001276740577000275B055B0DD770A3
:102A60001383D076B846CA00012C32D02B4FBC4617
:102A70008F016244BC46AC446746BA604746176063
:102A8000002932D0264AC90090466246414451602E
:102A90003F223F339343022837D0224937190A682F
:102AA0007F01D3180B602049EF19FA608B422ED8B2
:102AB00036197601AD19EB7E1C499B064A4013433B
:102AC0008022120613436A681360012080BCB84656
:102AD000F0BD174FBC468F016244BC46AC4467460C
:102AE000BA6247461760002908D1002364012C19F7
:102AF0006360104BE360E8E70020E7E70B4AC9009A
:102B00009046624641445162C2E75B00C5E7FEF76A
:102B100093FDFA68CCE7C0461423002084001050CF
:102B2000040010501C270020FF0F10500000105010
:102B3000800010500001105010B504F0B1F910BD24
:102B400010B57F200C0020404000E409110000195E
:102B50001A00034B4001C01800F05AF8012010BDC4
:102B6000142300207F23180000B5084083B00B42D7
:102B700004D14B424B41084A013393668022C90974
:102B80004000064B401840010021C018120104F01B
:102B9000BFF903B000BDC04600201150142300202F
:102BA0007F22130010B50B400A4200D110BDC909A5
:102BB0005B005B1804485B01C01800230022034936
:102BC000C37004F0A5F9F1E714230020FFF7FFFF1D
:102BD00080220A4B520410B51A60094B09491A6049
:102BE00010000B689843FBD1802200215201064857
:102BF000FFF710F90922054B5A6710BD00E00040AD
:102C000000F0004008C000400000105000001150CB
:102C1000002310B5C38201338282837601610400F0
:102C200004F05EF9002804D080219023074A89022D
:102C3000D150200004F074F9002802D0012323773A
:102C400010BD200004F05CF9FAE7C04600201150E6
:102C50007047C0467047C04600207047002070474C
:102C60007047C0467047C0467047C0467047C04670
:102C7000024B5878431E9841C0B27047B81D0020DF
:102C8000024B18784007C00F7047C046B81D00209F
:102C9000F0B5D6464F464646C0B52F4B07009A467C
:102CA0001B780E00FF2B50D1002941D00021542267
:102CB0002A48FFF7AFF80022294C2A4B20001A704F
:102CC000FDF768FE284B1C60284C2000143CFDF7E3
:102CD0006FFE200001F0FAFD254B264D1C60264BAF
:102CE000002B04D02800FFF7C7FA244B18602449B2
:102CF000002489462149002388462A7810E043466B
:102D00001B6862019B18002B12D05B68002B0FD050
:102D100098472A780134E4B2511C2300A14209DB10
:102D2000A242ECD89B1A5B014B445B68002BEFD1AD
:102D300000200BE05346310038001F70FFF7FEFD06
:102D40000028F5D03800FFF741FE0120E0BCBA466C
:102D5000B146A846F0BDC04654100020B81D002062
:102D6000B01D00207D2800200C1E00204C100020EB
:102D7000101E00207B28002079220010081C002053
:102D8000E8730010F0B5DE4657464E464546E0B5BE
:102D9000C84B91B002931B78FF2B00D13EE1C64B8C
:102DA000C64E9B465F46C64B0DAC0193C54B009388
:102DB00035686A69EFF3108172B61368002BFCD096
:102DC000BFF35F8FA9612800210001F0AFFB6A69A2
:102DD000AB69BFF35F8F0021116083F31088002877
:102DE00000D11BE16378082BE2D89B00FB589F467B
:102DF0006368002BDCD0A0689847D9E77F2221794F
:102E0000AF4D0A405300EB189846C809804440462D
:102E10000123303005799D430571057903339D43C6
:102E20000571002A00D100E14346A74A1B7D1278B4
:102E3000934200D3EFE0A54A5B011568ED18002D21
:102E400000D1EBE0A36862792078AD69A847AFE7CD
:102E50009F4A1378002B00D1E0E01378013BDBB2EE
:102E600013701378002BA3D10122954D01212B78EB
:102E7000042013432B703423EA5C8A43EA54EA5C4F
:102E80008243EA540133EA5C8A43EA54EA5C8243AF
:102E9000EA54237800209B4600F09EFC60222379B0
:102EA0001A40602A00D1EFE0402A00D1F5E0DB06AD
:102EB000DB0E012B00D113E1022B00D1C7E0002B68
:102EC00000D0E1E0202A00D11CE2002A00D0DBE0A3
:102ED0006379092B00D9D7E07E4A9B00D3589F46DF
:102EE000774D2B78DB0700D462E7FFF7BFFE5FE783
:102EF000019BDB78DB0700D45AE76068FFF7AAFE86
:102F000056E76F4D2B78DB0700D451E72878000790
:102F1000C00FFFF7A9FE4BE723786A4999468B4615
:102F2000694B6A4998468A4639001A784746002311
:102F3000B04600254E46894610E053461B686A019C
:102F40009B18002B00D176E0DB68300098473A7878
:102F50000135EDB2511C2B008D4244DC9542ECD37F
:102F60009B1A5B015B44EFE7237858499946564B1F
:102F70008A4698463100BB464E461A780025002303
:102F8000474689460FE053461B686A019B18002B91
:102F900055D0DB68300098473A780135EDB2511CC6
:102FA0002B008D4207DC9542EDD39B1A009A5B0102
:102FB00094466344EDE7019D542200212800FEF76A
:102FC00029FF1022FF214448FEF724FF2800202279
:102FD000FF2114304E465F46FEF71CFF00F0F2FB67
:102FE000FFF740FEE4E6364D542200212800FEF7AC
:102FF00011FF1022FF21281DFEF70CFF28002022C0
:10300000FF21143046464F46FEF704FF00F0DAFB7E
:103010002379AB70CCE6501C984213DA11B0F0BCA7
:10302000BB46B246A946A046F0BDA36862792078A7
:1030300000F0E6FBBCE646464F46214DE6E74E462D
:103040005F46CBE71F4D9B1A5B015D19FAE67023C3
:10305000217A0B4218D1C80982460F330B405B001E
:1030600098461948EB1853441B7D007899468342D3
:1030700066D216485B01006881469944002A00D157
:103080005FE14B46002B68D120780021FFF76AFDF5
:1030900080212078FFF766FD8AE6104800F09CFB4F
:1030A000012158460EAAFFF7CDF8002800D07FE690
:1030B000EAE7C0465410002040730010101E0020A4
:1030C000B81D0020E87300107B280020081C002099
:1030D0007D28002064730010BC1D002045220010D4
:1030E000237A0F2BD0D8CF4AEB181B791578AB4237
:1030F0003ED3691C9942C7DB5D1BCB4B6D01ED18BC
:10310000686900F069FB012158466B690EAA98476F
:10311000002800D04CE66022150023791D401A4299
:10312000B2D163790A3B012BAED800F055FB63792D
:103130000A2B00D199E158460EA900F0D9FA37E6DA
:10314000431C4B4500DAF7E04B461B1A5B019946DE
:10315000B5488144002A00D1F3E04B46586900F09D
:103160003BFB4B46012158465B690EAA98479CE7FA
:10317000AE4A5B011568ED18002DC1D184E7A37933
:1031800099466B789945D6D06B78002B00D033E107
:103190004B466B70002B00D12BE148460138C0B282
:1031A000FFF792FA002800D17EE143780793022BC3
:1031B00000D079E10122C179B1468B114911134048
:1031C0000A40302112015B0113432A78A8468A4342
:1031D00013432B7009239A4682445646BA46C37855
:1031E00082781B021343C31805938E4B04938E4BB6
:1031F00008938E4B09938E4B0A93059BB34200D8DC
:1032000055E1737801220B2B03D13378F278F6184D
:103210007378042B00D044E1059B00279B1B9BB2D5
:103220000693049B0B921D78002303931BE0099ADD
:103230007B011568ED18002D00D132E131005846B0
:103240002B69069A98478446082803D9069A824231
:1032500000D313E1049B01371D78FFB26B1C039769
:103260009F4200DD1DE1BD42E1D8039B5D1B089B31
:103270006D019C466544E1E76B780CAA023213703D
:10328000584601230EA900F049FA91E5E3881A0A8D
:10329000D8B20F2A00D9F7E666499300CB589F466B
:1032A0000EA800F09FFA5846A179FFF795FB02227D
:1032B0002B7813432B707BE5E388012B00D0E3E6EA
:1032C00008222B78584693430EA92B7000F010FA71
:1032D0006EE5022029780CAB9A1C8B068908DB0F5F
:1032E00001400B431380584602230EA900F016FA42
:1032F0005EE5E388012B00D0C6E608222B78134355
:103300002B7018E7237A0F2B00D9BDE6EB181D7937
:10331000444B1B789D4228D2444B6D011B685D19BC
:10332000002D00D1B0E6686900F056FA0121584638
:103330006B690EAA9847B8E6002A00D0A4E60023DD
:10334000994662790220130003928343012B15D022
:10335000002A00D098E62B004344534430331B79B5
:103360000CAA9B07DB0F0232BCE75A1CAA4200DA08
:103370008AE6ED1A2C4B6D01ED18D4E7E388002B9B
:1033800012D1029B1878039B012B23D0FFF7EAFB95
:1033900043460221EB18534430331A790A43012182
:1033A0001A711A790A431A714B46002B00D1FFE4B7
:1033B000586900F011FA4B4601215B690EAA584684
:1033C0009847002000F008FA3523EB5CDB0700D5B6
:1033D000EEE4B0E6FFF7E4FB43460221EB1853446A
:1033E00030331A798A431A711A7903998A431A7108
:1033F000DAE7FFF737FC9EE600215846FFF7F6FABA
:103400005846FFF799FBAB78074903930491054BA6
:10341000064998461A780591002329001D008A461E
:103420001BE0C0467B280020E8730010081C002029
:10343000CC1D00208C730010059B6A011B689B1833
:10344000002B4DD0DB685846984743461A78013523
:10345000EDB2511C2B008D422EDC9542ECD39B1A11
:10346000049A5B0194466344ECE70CAB9A1C584603
:1034700001230EA9157000F051F999E40B9A012A65
:103480004FD0002A3CD00023B07804E00133DBB2F7
:103490000F71934234D2C118C9B241440D79FF2D46
:1034A000F4D04E464546574600236B70ECE54E4639
:1034B0005746FFF7D5FB3EE655465422002128002B
:1034C000FEF7A8FC1022FF21281DFEF7A3FC280010
:1034D0002022FF211430FEF79DFC039BAB7057E6C2
:1034E0005546FAE7FEF7AAFE021E00D1CCE5D378D6
:1034F00091781B020B4358460EA900F00FF9D4E552
:1035000065463B002A0031000A9800F07FFEAC4679
:10351000049B039A1B7866440133934200DB6CE6FC
:10352000BFE7174B29699942ADD1079AABE7FFF77F
:1035300093FB021E00D1A7E5584613780EA900F0B0
:10354000EDF8B2E52189FFF7C3F8021EF4D19BE53F
:10355000022A0FD0FFF782FB021EC8D194E5FFF7C5
:10356000AFF8021E00D18FE5122358460EA900F0D5
:10357000D5F89AE5FFF7A8F8021EB8D184E5C04651
:10358000D53B0010F8B557464E46DE4645460C0082
:10359000E0B516001F00002A3CD0702398461E4B51
:1035A00000259B461D4B9A461AE05B461B7820007F
:1035B00099465346997800F0EBFD00281CD0210075
:1035C0004846FFF72FFA002816D0A378DA09012A17
:1035D00019D00A9A013513702378E418B54219DA24
:1035E0006378052B08D1E3789B079B0FBB4203D17F
:1035F0004246A3781A42D8D00020F0BCBB46B2465F
:10360000A946A046F8BD0B9A013513702378E4183B
:10361000B542E5DB0120F0E754100020B81D002082
:10362000702270B58B780C001A4201D0002070BD5A
:10363000064B20001D78064B997800F0A9FD002864
:10364000F4D021002800FFF7EDF9F0E75410002036
:10365000B81D00200B007F2010B51840DB09343363
:103660004000044AC018044B1168C01800F04CFD1B
:1036700010BDC0460C1E0020B81D00200B007F208E
:1036800010B51840DB0934334000044AC018044B1D
:103690001168C01800F060FD10BDC0460C1E00206F
:1036A000B81D002070B57F240F480C406400041939
:1036B000CD09641930342079C00701D5002070BDD0
:1036C000012625790948354300782571FFF738FA36
:1036D0000028F4D101222379934323712379033203
:1036E00093432371EAE7C046B81D00205410002020
:1036F00070B5094C0600082220000D00FEF790FB73
:1037000000238021E360A3602B78300099430022DE
:103710000023FFF7C7FF70BD981D0020F8B5CE4607
:1037200047469046254E80B58146082230000D0060
:103730001F00FEF775FB4346B3600023F381EC796D
:10374000AB7924021C43231CBC4200D93B1C9FB212
:10375000B381002C0DD0002F17D04246002A2BD069
:10376000402F1BD89FB233787F2B1CD80021144ADE
:103770000FE080212B780022994348460023FFF771
:1037800091FFC0BCB946B046F8BD7F230022317816
:1037900099433B004846FFF785FFF2E740239FB27D
:1037A00033787F2BE2D9064C3A0041462000FEF7E1
:1037B00037FB80212200ECE70020E2E7981D002083
:1037C000581D002010B5142200210248FEF722FBEC
:1037D00010BDC046981D0020014B18617047C046BF
:1037E000981D002010B5054C010008222000FEF7AE
:1037F00017FB0023A360E36010BDC046981D0020A6
:1038000070B5384C1D0023780600DA09C9098A42D0
:1038100010D00020002D00D070BD21003000FFF737
:10382000F3F82369002B03D02200032130009847CE
:103830000120F1E77F2B06D8A068002834D02A00A9
:103840002949FEF7EDFAE289A1685219E38892B29C
:103850004919E281A160934214D03F2D12D9A38966
:10386000981A051C80B240282AD82078ADB27F284B
:1038700028D800219A4232D01B4A2B003000FFF793
:1038800011FFC9E72369002B05D022000221300077
:10389000984700280AD080212378002299433000DD
:1038A0000023FFF7FFFEB7E70020B5E70021300057
:1038B000FFF758F930008021FFF754F90120ABE7FA
:1038C0004025D2E79A4207D0074C2A002000FEF795
:1038D000A7FA80212200D0E780210022CDE7002234
:1038E000CBE7C046981D0020581D002070B504008D
:1038F000FFF7BEF9002800D170BDFFF7C1F900281D
:10390000FAD1C8236343124DEE18F1780029F3D0A1
:1039100010335D19280000F0F3FD3F28ECD900209A
:10392000F178FFF797FE0028E6D0280000F0E8FDC8
:10393000F1783F2807D9074BE201D2180020402335
:10394000FFF7B0FED8E70020FFF798FED4E7C046A7
:10395000901C00200C1C002010B50400FFF788F913
:10396000002801D1002010BDFFF78AF90028F9D105
:10397000C8226243024B01309B181B791840F2E7C2
:10398000901C0020C82310B543430248181800F0CB
:1039900099FD10BDA01C0020F8B5C8248023444325
:1039A0001C4F103405003C195B029A4200D31A4A9E
:1039B000200092B200F008FE0600FFF759F9002837
:1039C00001D13000F8BDFFF75BF90028F9D1C82319
:1039D0006B43FF18FB78002BF3D0200000F090FD24
:1039E0003F28EED90020F978FFF734FE0028E8D010
:1039F000200000F085FDF9783F2807D9074BEA0140
:103A0000D21800204023FFF74DFEDAE70020FFF731
:103A100035FED6E7901C0020FFFF00000C1C0020A4
:103A2000F8B50400FFF724F9002801D10020F8BD03
:103A3000FFF726F90028F9D1C82565432E00134F5A
:103A40002436F619300000F03DFD0028EED07F1935
:103A50000020B978FFF7FEFD0028E7D00C4DE40107
:103A6000651929004022300000F0AEFDB978041E2F
:103A700008D003002A000020FFF714FE0028D5D04C
:103A80002000D4E70020FFF7F9FDCFE7901C0020CD
:103A90004C1C002070B5C82444430C4B0500E418AE
:103AA00080235B029A4200D3094A200092B200F0C0
:103AB00051FE0600200000F005FD3F2801D830002F
:103AC00070BD2800FFF7ACFFF9E7C046B41C00202A
:103AD000FFFF0000C82310B543430248181800F048
:103AE0000FFD10BDB41C0020F0B50025184C83B0AC
:103AF000C82200212000FEF78DF9164B21001D7011
:103B0000FF236371E1235B02A360200008234022AE
:103B1000A37338310095073B103000F09DFC27005F
:103B20000123210020002600402278310093B8377D
:103B3000243000F091FCC0363800FCF72BFF300039
:103B4000FCF728FFE56127622663656303B0F0BDDB
:103B5000901C00208C1C00200A4A116B136A00295B
:103B60000CD0002B07D00023D361536313630023D1
:103B700013620120704753631363FAE7002BF8D0F8
:103B8000D161F4E7901C002070B50F4C0522002194
:103B90002000FEF73FF90D4D2B78DA0707D50C4CC6
:103BA0009B070CD50121200000F0B0FE70BD200065
:103BB000103000F08BFE2B78054C9B07F2D42000D0
:103BC00000F084FEEEE7C046901C00208C1C002014
:103BD000B41C0020F0B54B79060083B0022B02D153
:103BE0008B79022B03D00025280003B0F0BD204FB5
:103BF000BB78002BF7D18B7809253B700C780C191A
:103C00006378242B07D00CE02378E4185D196378DF
:103C1000ADB2242B05D19542F6D90020FFF766FE00
:103C2000E2E71A00052B15D0042AF6D163790A2B96
:103C3000F3D1104B27780193013300933000022316
:103C4000E119023AFFF79EFC0028CCD00E35ED19A1
:103C5000ADB2E2E721003000FFF7E2FC0028C2D05D
:103C6000A3787B7023785D19E4186278ADB2DBE746
:103C7000901C0020921C0020F8B5602314001278DC
:103C8000050013400020202B07D1304A63792779A3
:103C900016781B023B439E4200D0F8BD6378222B6E
:103CA0001AD007D8202B34D0212BF6D101293ED0B1
:103CB0000120F2E7232BF0D1012940D00329F7D1CD
:103CC000234B002BF4D0E178A3780902002019439C
:103CD00000E000BF0120E0E7012930D00329E7D14F
:103CE00001252E00A378E478023924021C431471C4
:103CF000264024321000714000F008FE154B002BC6
:103D0000D6D06208002031002A4000E000BF012028
:103D1000C3E701290BD00329CAD10F4B002BC7D011
:103D2000083200201100FEF7ADFA0120B5E70723A5
:103D300021002800094AFFF7F1FC0120ADE721002E
:103D40002800FFF7D5FC0120A7E7C046901C002003
:103D5000000000000000000085220010981C0020D8
:103D6000F0B54F464646D646C0B5364D8046EA7851
:103D70000C001F008A423CD0AB788B4210D0002050
:103D8000E0BCBA46B146A846F0BD2F4B002B04D08C
:103D90002E4800F0ADFB002851D00020FFF7A6FD13
:103DA000AB78A34201D00120EAE7294B002B02D0D7
:103DB000002000E000BF0020FFF732FE0028F2D113
:103DC000244C200000F07EFB0028ECD1002FEAD02C
:103DD000BF06E8D1243C4046A178FFF73BFC002811
:103DE000E1D0002300224046A178FFF75BFC0120D0
:103DF000C6E79AB210239A46174EAA44310050469D
:103E000000F0A8FC154B002BBFD06B79FF2BBCD06A
:103E1000002FBAD0F219914603E001364E45B4D0D6
:103E20006B7932789A42F8D1504600F061FB002855
:103E3000F3D15346103B597900E000BFEDE700E0B5
:103E400000BFAAE7901C002000000000A01C00207A
:103E500000000000B41C00200C1C0020000000002A
:103E60009322F0B5134C85B0002120009200FDF79D
:103E7000D1FF23002000802640270F4D4D337600D0
:103E8000FF3329300295009300220023002103977D
:103E90000196FF3000F0D4F94035201D283400236E
:103EA00001220021039702950196009400F0C8F9C1
:103EB00005B0F0BD541F0020D41E002010B5054CE5
:103EC000200000F0F3F920002538FF3800F0EEF96B
:103ED000012010BD7C20002070B5084C002520007A
:103EE0003130FF30257000F0F1FC20000C3000F084
:103EF000EDFC2A23FF33E554657170BD541F00208B
:103F0000F8B557464546DE464E46E0B54B79804605
:103F10000F00FF2B5BD1404B99462A234946FF33C4
:103F2000CB5C002B53D14E79002E50D1BB783C781E
:103F30000B703B793C19002B46D098235B004B4417
:103F40009A460C234B449B46A51803E0AC423BD257
:103F50002378E4186378052BF8D1AC4234D22100E1
:103F60004046FFF75DFB002831D0A3780136F6B25A
:103F7000DB09012B32D0504600F0A8FC2A23494629
:103F8000A278FF33CA54637922791B021343234A70
:103F90005B0594465B0D942163445A4253414A4663
:103FA00002204900525C5B00824313434A4653544B
:103FB00051464046083900F0E3F9002807D023783D
:103FC000E4183B79B342C5D8E01B80B200E0002082
:103FD000F0BCBB46B246A946A046F8BD584600F024
:103FE00075FC5A46A3780C3A5371637921791B0208
:103FF0000B430A495B058C465B0D634459424B41B8
:10400000022011795B0081430B4359460020083997
:10401000137100F081F9D2E7541F002000FEFFFF6A
:10402000F8B52A2506001F48FF35455D1F008D4263
:1040300015D043798B4201D00020F8BD1A4B002BDC
:1040400004D039040020090C00E000BF174C3000F8
:10405000210000F061F900281DD00120EDE79A232E
:104060005B00C35A002B0DD1114B002B04D0002054
:104070001049BAB200E000BF30000F4900F080F9EB
:104080000120DAE796235B00C1583130BAB2FF3025
:1040900000F060FBE8E73A002100300000F008F98A
:1040A0000120CAE7541F002000000000581F002014
:1040B00000000000D41E00207C20002000B503007A
:1040C00083B0002910D00020012B07D80A78002ADD
:1040D00004D00C48C2540120012A01D003B000BD15
:1040E0001800FEF7D5FDF9E701236A46002001A973
:1040F0009380FEF7CDFD0028F0D00122014B1A700D
:10410000ECE7C046AC1D0020037870B5DB07040067
:104110000E00DD0F002B17D103785B0701D52800B7
:1041200070BD01213000494202F0D2FE2378DB0746
:10413000DD0F002B0AD123785B0708D404222378F3
:1041400001251343237002E00025E8E70025300035
:1041500002F096FEE3E7C04670B50C0001210600B0
:104160004942200002F0B4FE33785B07DD0F002BDC
:1041700004DB200002F084FE280070BD3378DB07EA
:1041800004D40422337893433370F2E70025F0E738
:10419000437902791B021343C2785B0592075B0DDA
:1041A000920F022A1DD0032A0CD00020012A08D128
:1041B00002394A425141124A94466144994240416F
:1041C000C0B2704702394A1E91410E4A494211401D
:1041D0008022D20094460020614499424041C0B2FE
:1041E000EFE7022905D0002040229A424041C0B2A8
:1041F000E7E7054A981843425841C0B2E1E7C04694
:10420000FF03000040FCFFFF00FEFFFF8A1870B5AF
:10421000914207D27F264C78052C04D00C780919DE
:104220008A42F8D870BD34008D782C40640004199F
:10423000ED0963550C7809198A42ECD8F2E7C046BB
:10424000F0B5C64600B582B0150008AA40CA040001
:1042500017886A46928D012090460A002178024014
:1042600081432000114321703A0000933100012363
:10427000083000F0F1F8002E01D0002F08D10A9B81
:10428000012063604346638002B080BCB846F0BD45
:1042900026001C363000FCF77DFB0023002D01D0EA
:1042A000330000266361A661E9E7C046012070473C
:1042B000F8B502240B7807001C4063425C41144BA4
:1042C00064421C40134B08009C4608300D00160049
:1042D000644400F0F7F8002807D1002E05D03442DE
:1042E00003D101242B781C4201D00020F8BD3800F6
:1042F0006978FFF7AFF90028F7D02B781C42F4D18A
:104300000023002238006978FFF7CCF9EEE7C046B9
:1043100040FEFFFFFF010000F8B50D000835060064
:1043200028000C0000F0CEF8002803D001272378E5
:104330001F4201D00020F8BD30006178FFF78AF9F4
:104340000028F7D028006288616800F03DF92378E2
:1043500005001F4000280BD0002FEBD1030062683E
:1043600030006178FFF79EF90028E3D02800E2E7EB
:10437000002FDFD130006178FFF780F9DAE7C0461F
:10438000F8B5CE46474680B58A8906000C000B7802
:10439000002A07D101251D4240D00020C0BCB946EB
:1043A000B046F8BD9B0733D42A4B402599462700D9
:1043B0000837380000F0A4F88542EED801222378AF
:1043C00090461A42E9D130006178FFF743F900289E
:1043D000E3D0380000F094F8424623781A40854232
:1043E00031D8002AD9D14A46638802401D1C934225
:1043F00000D9151CADB200226178002D00D0626892
:104400002B003000FFF74EF90028C6D02800C5E782
:10441000FE2380251B029946AD00C8E74978FFF7C7
:1044200019F90028B9D023781D42B6D1638800223B
:104430006178002B00D062683000FFF733F9002864
:10444000ABD06088AAE7002AA7D130006178FFF7D7
:1044500015F9A2E7C0FF0000F0B5C64600B504009C
:104460006846057E8020884617001E0000028242B2
:1044700026D8E068002803D00121494202F028FD37
:104480002069002803D00121494202F021FD434662
:10449000236073045B0CED031D430023E06863811C
:1044A000A780E5802381002801D002F0E9FC206983
:1044B000002801D002F0E4FC012080BCB846F0BD29
:1044C0000020FAE710B5048941898288A3B288B236
:1044D0008C4207D31B1A9BB2101C9A4200D9181C9D
:1044E00080B210BD5100091A5B189BB2F4E7C046B8
:1044F00003894089181A43425841C0B27047C046E8
:1045000010B5048941898288A3B288B28C4207D34E
:104510001B1A9BB200209A4201D9D21A90B210BD48
:104520005100091A5B189BB2F4E7C04670B504004D
:1045300000690E00002803D00121494202F0C8FCA6
:1045400025896089A288A9B283B2854232D3CD1A67
:10455000ADB2002D28D0AA4208D291422FD3891A99
:104560008BB263819A4203D89B1A9BB29A42FBD9C1
:10457000E28821685204520C53433000C918FDF7F9
:104580004FFC63890125591C89B2A2888B420DD941
:1045900000215200891A89B220696181002801D066
:1045A00002F06EFC280070BD618989B25200914210
:1045B000F2DBEFE75500ED1A4D19ADB2C9E78918E6
:1045C0008BB26381CEE7C046F0B546464F46D6462D
:1045D000C0B50600006989469046002803D0012135
:1045E000494202F075FC31897289B5888BB294B268
:1045F000914254D31F1BBFB2002F4AD0BD4205D2F7
:10460000AB4251D25B199CB22F0074814346B8452E
:104610003DD89FB2A54203D8641BA4B2A542FBD9E2
:10462000F28831685204520C904662432B1B9BB2B5
:10463000891842469F4225D953439BB21A004846E7
:104640009A46FDF7EDFB434648467D1B64195C43E3
:1046500031685044A2B2FDF7E3FB7189B588CB19EC
:104660009BB26A00994216D99B1A9BB2306973813A
:10467000002801D002F004FC3800E0BCBA46B14684
:10468000A846F0BD48467A43FDF7CAFBE5E73B1C68
:10469000BFE773899BB26A009342E7DBE4E76F00F0
:1046A0003F1BDF19BFB2A7E75B1B9CB2ACE7C0465C
:1046B000F8B50400C0680E00002803D0012149426B
:1046C00002F006FC258920896189A288ADB283B2F7
:1046D0008FB2884229D3DB1B9BB29A4209D8E77973
:1046E000FF0906D1E068002801D002F0C9FB3800BC
:1046F000F8BD2B0095421DD39B1A9BB29342FBD26F
:10470000E28820685204520C53433100C018FDF770
:1047100087FB6B1C9BB2A2889D4217D900235200D5
:104720009B1A9BB201272381DCE75100C91B5B1850
:104730009BB2D2E7E28820685204520C5343310006
:10474000C018FDF76DFB0135A288ABB25200934251
:10475000E8DBE5E7F0B54E465746DE464546E0B5B0
:1047600089460600170083B0002A67D0C068002879
:1047700003D00121494202F0ABFB3389F2799BB2AD
:1047800098467389B5889BB2D20940D198455ED2CC
:104790006A00D31A43449BB2AB425DD2EB1A1A1C97
:1047A0009BB2BB4200D93A1C97B27B1B9BB20193D0
:1047B000F3885B045B0C9A464346DB199BB29B462D
:1047C0004446A84503D3641BA4B2AC42FBD2534673
:1047D000634330682D1BADB2C018BD424BD3524667
:1047E00049467A43FDF71CFBB3885B00D84501D8E6
:1047F0009B4503DB5A46D31A9BB29B465B463D0062
:104800003381F06800281AD002F03AFB17E0F288F2
:104810005204520C9246AF4220D298454DD34246A4
:10482000D21A92B26900781B80B2D21901908A42E2
:1048300033DA4346FB189BB29B46C1E700252800AC
:1048400003B0F0BCBB46B246A946A046F0BD424606
:10485000D31A9BB2AB42A1D30025D2E7002DD0D012
:104860007F1B574398465A19002392B2B944934686
:104870002F000193A4E753465D43ADB22A00494699
:10488000FDF7CEFA019B2900E21853465A433068DF
:1048900092B24944FDF7C4FAA6E75A1992B2934678
:1048A000D21B92B2904693420CD94346591A8BB20E
:1048B0009846FB189BB29B4682E76900CA1A42449D
:1048C00092B2B0E7914200DD7AE7EEE710B504005E
:1048D000C068002803D00121494202F0F9FA20699A
:1048E000002803D00121494202F0F2FA0023E068D7
:1048F00063812381002801D002F0C2FA20690028D8
:1049000001D002F0BDFA012010BDC04670B5040010
:10491000C0680D00002803D00121494202F0D8FAF6
:104920002069002803D00121494202F0D1FA7F21F9
:10493000E379ED011940E0682943E171002801D0D5
:1049400002F09EFA2069002801D002F099FA0120B5
:1049500070BDC046F0B5DE4657464E464546E0B50A
:10496000070083B00CA80192027800203C689B46A7
:10497000E066616001219146E166002B34DD5A1E3C
:10498000904680225200944680264025616F10296F
:10499000FCD00021002801D13979890240451DD081
:1049A000624611432161A159616B0D420BD0012078
:1049B000636D40424B463B7103B0F0BCBB46B24610
:1049C000A946A046F0BDA16F0029ECD02169019B4A
:1049D000195401308345EDD03C68D7E74B4601229E
:1049E0005A4053021943DBE70020E3E7F0B5DE4607
:1049F00057464E46454690460022E0B585B01E001B
:104A00000EAB1B7807009B460368DA6601325960DB
:104A1000DA66002E60DD0279594692029246012242
:104A20004A4052029446802291465A46802403927C
:104A30006246BB46002010214746B446751EA400BE
:104A40000192421B160072427241019E5242164070
:104A500002963E5CB0465646424616433200029EDF
:104A600016431E61019E5A6B1142FCD04A469A5869
:104A700001969246002A0AD1A84228D0002201308D
:104A800092468445DDD1039B5F469B4616E05A6DF6
:104A9000012290465A6B2242FCD01A6E4246019681
:104AA000002AEBD0039B5F469B465346002B15D054
:104AB0005346DB0712D453461B070FD55B463B71A9
:104AC00005B0F0BCBB46B246A946A046F0BD039A6D
:104AD000002AD3D19046DDE70020EFE701204042D5
:104AE000ECE7C046F8B5DE4657464E464546834697
:104AF000E0B505200C00FCF797FC060060082100DB
:104B00008019FCF777FE4300984680440700052192
:104B10004046FCF76FFE3B1A9A461E4B81467000DA
:104B200080199C4231D81C49FCF764FE451C5B4649
:104B30001C680023E366226804335A4002331340A2
:104B400080225201A21813605346E3614B46236250
:104B5000434601204F2B03D950214046FCF74AFE23
:104B6000A023E050E36F39005D400C4B2D042D0C69
:104B7000E3181D6001233000E366FCF73BFEF0BC48
:104B8000BB46B246A946A046F8BD0549FCF732FE31
:104B9000451CCCE73F420F00809698007C10000037
:104BA00040787D010F4A70B5821A531E9A410E4B10
:104BB000D20008321A600D4B0D4C1A6015002368A4
:104BC0009D432B1EFAD166240268FF340571D56619
:104BD0001460633C8833FF3CD5639563D450FFF782
:104BE00081FF70BD5810002000E0004000F0004040
:104BF00008C0004010B582B06C46247C0094FFF7DA
:104C0000F5FE02B010BDC04610B582B06C46247CE3
:104C10000094FFF79FFE02B010BDC046FA23FF22AA
:104C20005B00C35893432C4A934221D0F622FF32B3
:104C3000825C472A1ED0294A934219D0284A9342BF
:104C400016D0284A934213D0274A934210D0274ABD
:104C500093420DD0264A981842425041254A944624
:104C600063445A425341184303E023498A4223D103
:104C700001207047B032FF32825A20498A420FD851
:104C80001F498A42F1D91F498C461F49624492B29A
:104C9000D1400A000121080010401142E9D1CAE7C1
:104CA0001A498A4210D81A498A42C4D919498C46ED
:104CB0006244194992B2EBE7184901208A42D8D0E0
:104CC00017498A42D5D0B6E7164817490240012055
:104CD0008A42B0D1CDE7C0460044544D00524C4DFD
:104CE00000524D43005448530054585400564C57FA
:104CF00000A6BBBE00AAABB8534100005151000052
:104D000040510000BFAEFFFF03A801005253000056
:104D100041530000BEACFFFF011001004C4C0000ED
:104D200047410000FFFDFFFF5354000070B5456A86
:104D30000400002D00D13FE18B685A789878120268
:104D40000004024318780243D878000602436A60E0
:104D50005A791879120202432A819B79AB728A68C8
:104D6000636AD279DA728A68636A127A1A738A6815
:104D7000636A527A5A738A68636A927A9A738B6802
:104D8000606ADA7AC2735A7B9D7B12022D042A4331
:104D90001D7B2A43DD7B2D062A4302615A7C9D7CC4
:104DA00012022D042A431D7C2A43DD7C2D062A4352
:104DB00042611B7D03768A68636A507D5876907DD8
:104DC0009876D27DDA768B68626A597E987E09027F
:104DD00000040143187E0143D87E00060143D161DF
:104DE000597F987F090200040143187F0143D87F4F
:104DF00000060143116222202121595C185C09023E
:104E0000000401432020185C01432320185C0006A5
:104E10000143516226202521185C595C00040902D7
:104E200001432420185C01432720185C000601433D
:104E300091622A202921185C595C0004090201436F
:104E40002820185C01432B20185C00060143D16226
:104E50002E202D21185C595C0004090201432C20EE
:104E6000185C01432F20185C0006014311633120B8
:104E70003221185C595C0002090401433020185C9F
:104E800001433320185C000601435163352036216D
:104E9000185C595C0002090401433420185C01438A
:104EA0003720185C00060143916339203A21185CD1
:104EB000595C0002090401433820185C01433B207F
:104EC000185C00060143D1633D203E21185C595C0B
:104ED0000002090401433C20185C01433F20185C98
:104EE00000060143116441204221185C595C000214
:104EF000090401434020185C01434320185C00066C
:104F00000143516445204621185C595C00020904A4
:104F100001434420185C01434720185C000601430C
:104F200091644A204921185C595C0004090201433C
:104F30004820185C01434B20185C00060143D164F3
:104F40004C21585C19004C3149780902014350202A
:104F500011524E21585C19004E3149780902014323
:104F60005220115255210430595C185C090200048A
:104F700001435420185C01435720185C000601438C
:104F800091655821585C190058314978090201434C
:104F90005C2011525A21595C5A335B78D06E1B0247
:104FA0000B435E21535201235B4213665366002874
:104FB00002D013781B0700D570BD111D5C22FCF7D1
:104FC0002FFF0821626A13780B431370F4E7C04681
:104FD0006A4B70B5036080239B05002543608023E6
:104FE00000268560C560056145618561C561056212
:104FF00045628562C562056345638563C563056473
:1050000045648564C564056545658565C565056652
:1050100045668566C566056745678567C567C5508A
:105020000433C5500433C5500433C5500433C55050
:105030000433C5500433C5500433C5500433C55040
:105040000433C5500433C5500433C5500433C55030
:105050000433C5500433C5500433C5500433C55020
:105060000433C5500433C5500433C5500433C55010
:105070000433C5500433C5509033C5520233040085
:10508000C6546D30FF3001F0CDF9BA238E225B009B
:10509000E5520833E5500433E5500433E55004335A
:1050A000E5500433E55052000433E2500433FC3A37
:1050B000E25422000433E55077320433E550FF32E6
:1050C0000433E250D22221002D4B5200A35004326F
:1050D000A55079310432A550FF310432A150043279
:1050E000A3500432A5500432A5500432A550043216
:1050F000A3500432A5500432A5500432A550043206
:10510000A350EC231F4A5B00E2501F4A0433E252D3
:105110000433E550F2236422FF33E2540733E550B1
:105120001A4A0833E5500433E2520433E55004339D
:10513000E6540433E5500433E5500433E5500433BA
:10514000E5500433E5500433E552114B8E22E6540A
:105150000133E6540F4B9200E5520233E55004331D
:10516000E5520433E5500123A354503AA5500432CC
:10517000A350FC33FF332000E55070BD7074001065
:10518000000002020002646464090000FC0B0000DD
:10519000270200002A020000F0B5C64600B515003F
:1051A0006A46127E04009046DA22FF32825C0026B4
:1051B000002A33D17D32FF32865A6888AA88C71CFC
:1051C000974216DA071D97423BD00530904244D0F3
:1051D000EC235B00E35C002B1BD1EB88D01E9842D4
:1051E00055DD101FC31AB34234DAAA68D154AA8815
:1051F00028E0F3204000225C8A18D2B22254E82032
:10520000FF30275CBC4662442254AA88002A09D198
:1052100029700132AA8080BCB846F0BD032ACCD0E8
:105220000226CAE7012A03D0022A03D16980F0E7E7
:105230006970EEE76888032AC4D1090208436880D0
:10524000E7E7297306369642E3D1EC235B00E35C83
:10525000002BDED10023A371DBE769730021A1716C
:10526000A8898446F3204000205A844513D028782A
:10527000A973984234D0052837D0DA23FF33E35C92
:10528000032BDFD10021CE33FF33E150DAE70636BE
:105290009642DFD0BDE724480131A9732154297813
:1052A00099422CD006272888FF37B8422DD00528F0
:1052B00003D1A86807789F422FD0EC235B00E35C02
:1052C000002BDAD10129D8D12B68FE318B43174945
:1052D0008B42D2D129002000FFF728FDAA88CCE715
:1052E0006F784745C7D1E973C7E7A968087898423E
:1052F000C3D14B784345C0D10023EB73BDE7687839
:105300004045CFD10123EB73D7E7A86807789F42C8
:10531000D3D143784345D0D1F4E743784345CCD14A
:105320000323EB73C9E7C0462602000000075C00B8
:10533000F0B557464E46DE464546E0B58DB002AF65
:105340000600B9617A623B62FBF766FF00291CD058
:10535000FA2200239200FCF78BFAED23F0255B0084
:10536000F35C02009846002100236D007059002470
:10537000121A8B419C420DDD0120BD460BB0F0BCE2
:10538000BB46B246A946A046F0BDFA218900FCF70B
:1053900031FAE2E79C4201D19045EDD8B6235B009B
:1053A0009C46B444634618007B6101F055F8051E25
:1053B00000D1D2E3030400D5D6E07B6A3A6A1343F6
:1053C00060D1AA46CA4B7B62CA4B3B62F379EB467B
:1053D0001A1C534500D9524691B288466946073394
:1053E000DB08DB00CB1A9D4602AB19007869D2B20C
:1053F000994601F06DF8804500D03DE34346002B0F
:1054000000D145E3002406E0022B00D1B2E00134D4
:10541000A3B243452DD24B461D5DB379012BF3D882
:10542000B52D00D1EFE1242D00D166E2D32D00D1BE
:10543000CBE2012BEBD1F82149007356002B00D0B1
:1054400019E20022B2712A2D00D198E2F222F8214D
:10545000FF32B25601335BB2490073549A42D6D13F
:105460000023B371002AD2D10134A3B2B2714345F3
:10547000D1D3534642469B1A9BB29A46DD46002B37
:10548000A4D179E79A4BFD619A469B4BBB60F379B7
:10549000F9696D461A1C8B4200D90A1C91B28846E4
:1054A00069460733DB08DB00CB1A9D4602AB1900C7
:1054B0007869D2B29B4601F00BF8404500D0DAE2A1
:1054C0004346002B00D1E1E28A4B00249946E423B5
:1054D0005B009C46B4446346FD603B6106E0022BE2
:1054E00000D18BE00134A3B2984533D95B461D5DF2
:1054F00053467A6A1A704B463A6A1A70B379012B8E
:10550000EDD8B52D00D19AE1242D00D108E2D32D9C
:1055100000D152E2012BE5D1F82149007356002B4E
:1055200000D0D6E10022B2712A2D00D11AE2F22277
:10553000F821FF32B25601335BB2490073549342F3
:10554000D0D10023B371002ACCD10134A3B2B271FF
:105550009845CBD84246FB69FD689B1A9BB2FB611C
:10556000AD46002B93D107E743045D0C002B00D020
:1055700023E701E7E333FF33F35A002B00D0EAE0DF
:10558000DA22FF32B15CB52D28D0B3713A6A7B6A5A
:10559000012927D0002900D1D7E1022900D142E119
:1055A0001B781278290000923200C9323000DBB239
:1055B000FF32FFF7F1FDF2225200B35A0133B3522A
:1055C00025E7D5235B00F35A002B00D172E2D823E4
:1055D0005B00F3581D70DA23FF33F15C444B454AFE
:1055E0000129D7D11B781278290000923200993214
:1055F0003000DBB2FF32FFF7CFFDDCE7E333FF33F0
:10560000F35A002B1DD1DA22FF32B25CB52D00D047
:10561000B371012A4CD0002A30D0022A00D11CE1FB
:1056200053464A461B7812782900009230003A69A6
:10563000DBB2FFF7B1FDF2225200B35A0133B3528D
:1056400050E7012B00D1A5E1072B00D90FE2BA6882
:105650009B00D3589F46D5235B00F35A002B00D004
:105660002CE2B623FF33F554DA23FF33F25C022A2F
:1056700000D12BE2012A1BD0002AD1D153464A4641
:105680001B781278290000923000BA69DBB2FFF76C
:1056900083FDD0E7D5235B00F35A002B00D0E2E175
:1056A000B533FF33F554DA23FF33F25C012AB2D16C
:1056B00053464A461B7812782900009232009932EC
:1056C0003000DBB2FF32FFF767FDB4E7D5214900B8
:1056D000735A2A0213437352DA23FF33F25C98E7BA
:1056E000D5235B00F552DA23FF33F25C91E7C04625
:1056F000792800207A28002028740010AA22D423B8
:10570000FF32B5545B00F35C052B00D1AFE151468D
:1057100009788B4200D132E2EC2301225B00F25483
:10572000DA23FF33F25C74E7D423F3225B00F554F1
:1057300000235200B3523A3AB352B733AB3AFF3375
:10574000FF3AF254BB69DA88D7235B00F252DA23BE
:10575000FF33F25C5DE7012B00D123E1072B00D979
:1057600039E7D04A9B00D3589F46D5235B00F35AB4
:10577000002B00D08EE1B623FF33F554DA23FF333C
:10578000F35C022B00D1DFE1012B00D1F4E1002B0F
:1057900000D1D8E0C44BC54A02E7D5214900735A6D
:1057A0002A021343735216E7D5235B00F55212E722
:1057B000AA23FF33F554013BF15CF961052900D1BF
:1057C00009E7B94B1A78914200D1EBE1B74AEC21D5
:1057D000012049007054DA21FF31715CD8E6D423EE
:1057E000F3225B00F55400235200B3523A3AB3520D
:1057F000B733AB3AFF33FF3AF254BB69DA88D723A9
:105800005B00F252E7E6F22200235200B352E33A81
:10581000FF3AB271AB32FF32B352D933FF33543255
:10582000F2527B6A3A6A1B781278290000923200A1
:10583000A9323000DBB2FF32FFF7AEFCBBE6F2224A
:1058400000235200B352E33AFF3AB271AB32FF3257
:10585000B352D933FF335432F25253464A461B787F
:105860001278290000923200A9323000DBB2FF32F8
:10587000FFF792FCDFE6012B00D1AEE0DAB2052A99
:1058800000D9BCE0F218F332FF321570052B00D0BE
:10589000D9E5874BF05C00286FD1343BF35C2A2BB1
:1058A00007D1F423FF33F35C472B02D13000FFF71D
:1058B000B5F97F4BF0542A2D61D0F223F82206214E
:1058C000FF33F3565200B154062B00D09FE5062259
:1058D000C6E5012B00D189E0DAB2052A00D89BE0A9
:1058E0002A2D3FD0F222FF32B05601335AB2725401
:1058F000824200D027E6020023E60123B371F2338F
:10590000FF33F554F23BFF3BF8225200B354F2222E
:10591000FF32B2569A4200D079E50023B37176E5A2
:105920000123B371F233FF33F554F23BFF3BF8220E
:105930005200B354F222FF32B2569A4200D0D1E55F
:105940000023B371CEE5584B584A1B7812782900D2
:1059500000923000BA69DBB2FFF71EFC2BE62A2D5D
:1059600000D0E4E5F823FC225B00F254F223FF337D
:10597000F356043300D0B5E5E2E72A2D9DD1F82394
:10598000FC225B00F254F223FF33F356043300D0C1
:105990003DE5C2E7DA23FF33F25C622D00D138E641
:1059A000002335E6DA23FF33F15C622D00D115E6E2
:1059B00000233E4AB3713C4B12E6B42300225B0045
:1059C000F252663BFF3BB3718CE5B42300225B00CF
:1059D000F252663BFF3BB37119E5472D00D030E52D
:1059E000F423FF33F554F23BFF3B8DE7472D00D006
:1059F00098E5F423FF33F554F23BFF3B97E72A2D5C
:105A0000BDD0F222FF32B05601335AB272549042E6
:105A100000D027E5020023E5F218F332FF321570BB
:105A2000052B9CD1224BF05C00280ED1F9235B00A2
:105A3000F35C2A2B07D1F423FF33F35C472B02D10D
:105A40003000FFF7EBF81A4BF0542A2D8AD0F223DE
:105A5000F8220621FF33F3565200B1540622062BDA
:105A600000D03FE56DE5D8235B00F3581D70DA23C5
:105A7000FF33F25CCDE5AB468E239B00F35C002B3D
:105A800001D00023B3710020DD4676E4AD46FEE48C
:105A9000DD469BE4012B00D1A5E0D8235B00F35841
:105AA0005D706BE648740010792800207A28002089
:105AB00026020000DA235B00F5548CE5012B00D1AF
:105AC0008DE0D8235B00F3585D70CDE5D422520001
:105AD000B25C7A60052A00D0BFE6D8215046490062
